:020000040800F2
:10000000FCFF002029160000211600002116000028
:100010002116000021160000211600002116000004
:1000200021160000211600002116000021160000F4
:1000300021160000211600002116000021160000E4
:1000400021160000211600002116000021160000D4
:1000500021160000211600002116000021160000C4
:1000600021160000211600002116000021160000B4
:1000700021160000211600002116000021160000A4
:100080002116000021160000211600002116000094
:100090002116000021160000211600002116000084
:1000A0002116000021160000211600002116000074
:1000B0002116000021160000211600002116000064
:1000C0002116000021160000211600002116000054
:1000D0002116000021160000211600002116000044
:1000E0002116000021160000211600002116000034
:1000F0002116000021160000211600002116000024
:100100002116000021160000211600002116000013
:100110002116000021160000211600002116000003
:1001200021160000211600002116000021160000F3
:1001300021160000211600002116000021160000E3
:1001400021160000211600002116000021160000D3
:1001500001480068704700BF8C02002083B0CDF8D2
:1001600000E000F0FF031A09104603F00F021346E7
:1001700014E0194A02921FE0184A02921CE0184A41
:10018000029219E0174A029216E0174A029213E00F
:10019000164A029210E0164A02920DE00028E8D0BA
:1001A0000128E9D00228EAD00328EBD00428ECD0BB
:1001B0000528EDD00628EED0012212B29A40ADF803
:1001C000042002980A46BDF8041000F067FADDF832
:1001D00000E003B0704700BF00080140000C014080
:1001E000001001400014014000180140001C0140B3
:1001F0000020014081B0194900EA010108460022AF
:100200000EE0042022E0082020E010201EE0202044
:100210001CE040201AE0802018E040F2001015E0B9
:100220000F498842EDD00F498842ECD00E498842F0
:10023000EBD00E498842EAD00D498842E9D00D49F9
:100240008842E8D00C498842E7D010460B4909683B
:1002500041EA000209490A6001B0704700FCFFFF53
:1002600000080140000C0140001001400014014052
:1002700000180140001C01400020014018100240FD
:1002800082B0CDF800E0034619460191FFF760FF08
:1002900040F2E83100FB01F201990A601F49097838
:1002A000C1F30311C8B21E4909180878C0B21A1D5B
:1002B0001968C140116019490988C1F3022188B247
:1002C000174909180878C0B203F20802191D096815
:1002D000C140116011490988C1F3C22188B2104997
:1002E00009180878C0B203F20C02191D0968C14050
:1002F00011600A490988C1F3813188B20949091896
:100300000978C8B203F2100203F20C010968B1FBCC
:10031000F0F11160DDF800E002B070470410024017
:10032000A41B0000B41B000081B0CDF800E0012246
:1003300052B23E490A6000F268010B686FF000613A
:1003400003EA0102144603F00061C90E0B4602F0F5
:100350000041B1F1004F02D135490A6801E0354949
:100360000A6804F47021090C0E464FF6FF7104EA86
:1003700001010D4604F44011B1F5401F0DD16FF09D
:10038000706102EA01010E462A490A686FF0706145
:100390000A4028490A60324616E004F48011B1F59B
:1003A000801F09D14FF00301B140C94302EA0101A6
:1003B00041F070610A4607E0610D090105FA01F19B
:1003C000C9430A4042F070622BB1610D090105FA80
:1003D00001F10A43FFE704F00041B1F1004F02D1FF
:1003E00013490A6001E013490A6040F2000A81469D
:1003F0004FEA8A0109EB01010968B1F1FF3F10D012
:1004000009F134014FEA8A03C91809680A4609EB61
:100410000301096808461146FFF7A0FE0AF1010A28
:10042000E6E7DDF800E001B0704700BF000342429C
:100430001C0001400400014081B0ADF800100146ED
:10044000BDF800000B68C3F3C01202B9FAE70A1D39
:10045000106001B07047FFFF89B0CDF800E083461F
:1004600098B28C46BDF824100A9E04ACADF8041076
:10047000ADF808002046FFF703FFBDF80800BDF8FF
:100480000410644CA34512D101256DB2624C256065
:10049000624D634C2560634D634C2560634D644C35
:1004A0002560644D644C2560079C039456E0634CC2
:1004B000A34512D101256DB2614C2560614D584CA8
:1004C0002560614D584C2560604D594C2560604D4C
:1004D000594C2560069C039440E05E4CA34512D124
:1004E00001256DB25C4C25605C4D4D4C25605C4D2A
:1004F0004D4C25605B4D4E4C25605B4D4E4C256050
:10050000069C03942AE0594CA34512D101256DB2F3
:10051000574C2560574D424C2560574D424C256045
:10052000564D434C2560564D434C2560069C039424
:1005300014E0544CA34511D101256DB2524C2560F5
:10054000524D374C2560524D374C2560514D384C3B
:100550002560514D384C2560069C0394ADF804107D
:10056000ADF808003046FFF7DFFEBDF80800BDF823
:1005700004100BF1100500242C600BF110052C6801
:100580000C432C600BF10C0500242C6018B140F4D6
:10059000806080B2FFE70BF10C052C6804432C60EF
:1005A0000BF10C060125346865F34D3434600BF112
:1005B0000C060125346865F3C30434600BF10C06A6
:1005C0000125346865F3820434600BF114050024BE
:1005D0002C60039D192465434FEA8C04B5FBF4F7A6
:1005E0006424B7FBF4F42601350964246C433C1BF6
:1005F000240104F232056424B5FBF4F404F00F0482
:1006000046EA04040BF10805A4B22C60DDF800E012
:1006100009B07047003801403803424251090000D8
:1006200090020020FFFFFFFF94020020FFFFFFFF6A
:1006300098020020FFFFFFFF9C02002000440040C2
:10064000C4034242D5090000FFFFFFFFFFFFFFFF89
:10065000FFFFFFFF00480040C80342428509000039
:10066000FFFFFFFFFFFFFFFFFFFFFFFF004C00400A
:10067000CC034242F1090000FFFFFFFFFFFFFFFF35
:10068000FFFFFFFF00500040D0034242A1090000DD
:10069000FFFFFFFFFFFFFFFFFFFFFFFF81B0CDF870
:1006A00000E08CB21546774B00EA03031E4618465D
:1006B000FFF7A0FDB4F1FF0F0CD1734B9D4203D1A6
:1006C0004FF033333360D9E0422D03D14FF0443340
:1006D0003360D3E04FF6FF739C4214D16A4B9D42C6
:1006E00007D14FF033333360341D4FF03333236081
:1006F000C4E0422D07D14FF044333360341D4FF036
:1007000044332360BAE00021002005F001030BB15F
:1007100000211DE005F0020333B105F4C0730BB1F5
:10072000082100E0042113E005F0040333B105F0D3
:1007300020030BB1042100E0002109E005F00803CB
:1007400033B105F020030BB10C2100E00821FFE7D5
:100750004E4B05EA03030BB1032009E005F40073D7
:100760000BB1022004E005F480630BB10120FFE728
:1007700005F00C030BB10143FFE704F0FF039BB24C
:10078000002B3BD0376800201FFA84F832462E46F3
:1007900008282CD24FF0010303FA00F408EA0403FE
:1007A000A34222D185004FF00F03AB40DB4307EAA1
:1007B000030401FA05F344EA03031D4606F48173BA
:1007C000B3F5817F05D102F214044FF00103834099
:1007D000236006F08203822B05D102F210044FF051
:1007E0000103834023602F46FFE7401CD0E71760DA
:1007F0001FFA88F00F463146164602E00F4629469A
:10080000A0B2B0F1FF0F39D9331DD3F80080002218
:10081000082A30D202F208044FF0010303FA04F46C
:1008200000EA0403A34224D195004FF00F03AB402C
:10083000DB4308EA030807FA05F348EA030801F472
:100840008173B3F5817F07D106F2140502F2080423
:100850004FF00103A3402B6001F08203822B07D1EC
:1008600006F2100502F208044FF00103A3402B60CA
:10087000FFE7521CCCE7331DC3F80080DDF800E031
:1008800001B0704700FCFFFF1400080000080800DA
:1008900001490860704700BF9C81214201490860FE
:1008A000704700BFA801224201490860704700BF9D
:1008B0009401214201490860704700BFB88122427B
:1008C00001490860704700BF8C012242014908605D
:1008D000704700BF9881214201490860704700BFFE
:1008E0008001214201490860704700BFB0012242E7
:1008F00001490860704700BFAC012242014908600D
:10090000704700BFA081224201490860704700BFC4
:10091000A481224201490860704700BFA881224299
:1009200001490860704700BFAC01224201490860DC
:10093000704700BF9481224201490860704700BFA0
:100940009881224201490860704700BFB08122426D
:1009500081B0CDF800E081B20348FFF76DFDDDF80E
:1009600000E001B0704700BF003801400149086055
:10097000704700BF9C81214201490860704700BF59
:100980009881214281B0CDF800E081B20348FFF7A1
:1009900053FDDDF800E001B0704700BF00480040A3
:1009A00081B0CDF800E081B20348FFF745FDDDF8E6
:1009B00000E001B0704700BF0050004001490860EE
:1009C000704700BFB001224201490860704700BF74
:1009D000B081224281B0CDF800E081B20348FFF738
:1009E0002BFDDDF800E001B0704700BF004400407F
:1009F00081B0CDF800E081B20348FFF71DFDDDF8BE
:100A000000E001B0704700BF004C004081B0CDF85D
:100A100000E0019D2C4610B408B493B28AB201469E
:100A20000348FFF719FD02B0DDF800E001B07047A0
:100A30000044004081B0CDF800E0019D2C4610B488
:100A400008B493B28AB201460348FFF705FD02B02D
:100A5000DDF800E001B070470038014081B0CDF80A
:100A600000E04FF0420289B2FFF718FEDDF800E027
:100A700001B0704781B0CDF800E0044A89B2FFF7B9
:100A80000DFEDDF800E001B0704700BF1400080063
:100A900081B0CDF800E0019D2C4610B408B493B2AB
:100AA0008AB201460348FFF7D7FC02B0DDF800E048
:100AB00001B070470048004001490860704700BF1E
:100AC000B481224201490860704700BFA801224258
:100AD00001490860704700BF900121420149086048
:100AE000704700BF8801224281B0CDF800E009497B
:100AF00002B440F2000340F2000240F20001FFF7AE
:100B0000C7FF01B0044A05490A600020DDF800E093
:100B100001B07047D81A0000850900007402002057
:100B200081B0CDF800E0A9E0012905D140F2200113
:100B30006548FFF793FF04E040F220016248FFF7A9
:100B400099FFBBE0012905D140F208015F48FFF79A
:100B500085FF04E040F208015C48FFF78BFFADE041
:100B6000012905D144F200015948FFF777FF04E05D
:100B700044F200015648FFF77DFF9FE0012905D1AF
:100B800040F200415148FFF769FF04E040F20041A4
:100B90004E48FFF76FFF91E0012905D140F60001B3
:100BA0004A48FFF75BFF04E040F600014748FFF7C3
:100BB00061FF83E0012905D141F200014348FFF7BD
:100BC0004DFF04E041F200014048FFF753FF75E09C
:100BD000012905D141F200013D48FFF73FFF04E044
:100BE00041F200013A48FFF745FF67E0012905D1CE
:100BF00040F600013648FFF731FF04E040F60001FF
:100C00003348FFF737FF59E0012905D140F2400191
:100C10002F48FFF723FF04E040F240012C48FFF784
:100C200029FF4BE0012905D140F220012848FFF7B8
:100C300015FF04E040F220012548FFF71BFF3DE0CF
:100C4000012905D140F240012248FFF707FF04E0E7
:100C500040F240011F48FFF70DFF2FE0012905D1A9
:100C600040F280011B48FFF7F9FE04E040F28001EA
:100C70001848FFF7FFFE21E0012020E000283FF4A4
:100C800053AF01283FF45EAF02283FF469AF032859
:100C90003FF474AF04283FF47FAF05283FF48AAFD8
:100CA00006283FF495AF0728A0D00828ACD0092823
:100CB000B8D00A28C4D00B28D0D0DDE70020DDF85A
:100CC00000E001B0704700BF000801400010014083
:100CD00000140140000C014081B0CDF800E0017823
:100CE000CCB2A0B2034C2468A0470020DDF800E09D
:100CF00001B070477402002081B0CDF800E0A9E097
:100D0000012905D140F210016548FFF7A7FE04E074
:100D100040F210016248FFF7ADFEBBE0012905D1AA
:100D200040F204015F48FFF799FE04E040F204013D
:100D30005C48FFF79FFEADE0012905D142F20001BA
:100D40005948FFF78BFE04E042F200015648FFF7D6
:100D500091FE9FE0012905D140F200415148FFF783
:100D60007DFE04E040F200414E48FFF783FE91E033
:100D7000012905D140F600014A48FFF76FFE04E063
:100D800040F600014748FFF775FE83E0012905D1D1
:100D900041F200014348FFF761FE04E041F2000127
:100DA0004048FFF767FE75E0012905D140F20101D7
:100DB0003B48FFF753FE04E040F201013848FFF7DB
:100DC00059FE67E0012905D140F200413648FFF79E
:100DD00045FE04E040F200413348FFF74BFE59E086
:100DE000012905D140F200212F48FFF737FE04E02A
:100DF00040F200212C48FFF73DFE4BE0012905D1D0
:100E000040F200112848FFF729FE04E040F20011EB
:100E10002548FFF72FFE3DE0012905D140F24001B2
:100E20002248FFF71BFE04E040F240011F48FFF795
:100E300021FE2FE0012905D140F280011B48FFF778
:100E40000DFE04E040F280011848FFF713FE21E098
:100E5000012020E000283FF453AF01283FF45EAFAB
:100E600002283FF469AF03283FF474AF04283FF42D
:100E70007FAF05283FF48AAF06283FF495AF0728D7
:100E8000A0D00828ACD00928B8D00A28C4D00B2894
:100E9000D0D0DDE70020DDF800E001B0704700BFF2
:100EA000000801400010014000140140000C014006
:100EB00042F6DF67C0F200077F1EFDD100BF00BF12
:100EC00000BF00BF00BF704781B0CDF800E0012037
:100ED000034C2468A047DDF800E001B0704700BF74
:100EE0008402002081B0CDF800E0094902B440F24C
:100EF000000340F2000240F20001FFF787FD01B05D
:100F0000044A05490A600020DDF800E001B070479E
:100F10006C1A0000D50900007402002002680B4919
:100F20000A6000F208010A6809490A60011D0A689E
:100F300008490A6000F218010A6807490A6000F2CD
:100F40001C010A6805490A60704700BF780200204A
:100F50007C02002080020020840200208802002001
:100F600081B0CDF800E00120034C2468A047DDF8F3
:100F700000E001B0704700BF8002002081B0CDF8D2
:100F800000E0094902B440F2000340F2000240F2DE
:100F90000001FFF73BFD01B0044A05490A6000204B
:100FA000DDF800E001B070476C1A0000D5090000C0
:100FB0007402002081B0CDF800E0094902B440F28B
:100FC000000340F2000240F20001FFF733FD01B0E0
:100FD000044A05490A600020DDF800E001B07047CE
:100FE000001A0000510900007402002081B0CDF801
:100FF00000E00120094C2468A047FFF759FF0020BA
:10100000074C2468A047FFF753FF0020054C2468D5
:10101000A047DDF800E001B0704700BF7C0200206F
:10102000780200208802002081B0CDF800E0012085
:10103000094C2468A047FFF73BFF0120074C2468B8
:10104000A047FFF735FF0020054C2468A047DDF8D6
:1010500000E001B0704700BF7C0200207802002051
:101060008802002081B0CDF800E00120094C2468FE
:10107000A047FFF71DFF0020074C2468A047FFF79B
:1010800017FF0120054C2468A047DDF800E001B0FF
:10109000704700BF7C0200207802002088020020F8
:1010A00081B0CDF800E00020094C2468A047FFF78C
:1010B000FFFE0020074C2468A047FFF7F9FE01203F
:1010C000054C2468A047DDF800E001B0704700BF80
:1010D0007C020020780200208802002081B0CDF838
:1010E00000E00020094C2468A047FFF7E1FE012042
:1010F000074C2468A047FFF7DBFE0020054C24685E
:10110000A047DDF800E001B0704700BF7C0200207E
:10111000780200208802002081B0CDF800E0002095
:10112000094C2468A047FFF7C3FE0120074C246840
:10113000A047FFF7BDFE0120054C2468A047DDF85D
:1011400000E001B0704700BF7C0200207802002060
:101150008802002081B0CDF800E00020094C24680E
:10116000A047FFF7A5FE0020074C2468A047FFF723
:101170009FFE0020054C2468A047DDF800E001B088
:10118000704700BF88020020780200207C02002007
:1011900083B0CDF800E0024610460D228DF80820FD
:1011A0000A228DF809201FE0FFF796FD23E0027860
:1011B0002AB10190FFF790FD0198401CF7E71AE073
:1011C00002782AB10190FFF787FD0198401CF7E7EC
:1011D00002AA1046FFF780FD0DF109021046FFF745
:1011E0007BFD08E0062007E00029DDD00129DED0E4
:1011F0000229E5D0F6E70020DDF800E003B07047F3
:1012000081B0CDF800E011E00846FFF76DFC16E074
:101210000846FFF7B3FE12E00846FFF7CBFE0EE0EC
:101220000846FFF75FFE0AE0012008E00028EBD047
:101230000128EDD02028EFD03028F1D0F4E7DDF8F8
:1012400000E001B07047FFFF81B0CDF800E0FFF78C
:1012500065FEDDF800E001B07047FFFF81B0CDF81A
:1012600000E00120094C2468A047FFF721FE01207F
:10127000074C2468A047FFF71BFE0120054C24689B
:10128000A047DDF800E001B0704700BF7C020020FD
:10129000780200208802002081B0CDF800E05FFADB
:1012A00081F95FFA82FA0FE05FFA8AF15FFA89F05A
:1012B000FFF722FD0DE05FFA8AF15FFA89F0FFF790
:1012C0002FFC06E0012004E00028EDD00128F2D038
:1012D000F8E7DDF800E001B07047FFFF81B0CDF81E
:1012E00000E0FFF73DFEFFF7E3FDFFF7EDFDDDF862
:1012F00000E001B07047FFFF81B01548006840F082
:101300000101134801601349134801601048016846
:10131000124801400E4801600D4801686FF48020BA
:1013200001400B4801600C4801686FF4FE00014069
:1013300009480160064801686FF0A0500140044868
:1013400001604FF000010648016001B0704700BF26
:10135000001002400000FFF004100240FFFFF6FE04
:101360002C10024081B04FF000094FF0000CBDEB93
:101370000A0F04DCBDEB0B0F01DBD446EA464BF849
:10138000049BBBEB0A0FFAD1BCEB0A0F05DDE2466A
:10139000D9F800B00BF1040BF1E701B07047FFFF83
:1013A00081B0CDF800E0002200210020FFF774FF9B
:1013B000002201210020FFF76FFF00220221002000
:1013C000FFF76AFF002206210020FFF765FF0022D9
:1013D00007210020FFF760FF42F280512020FFF735
:1013E0000FFF44F67F77C0F212077F1EFDD100BFCA
:1013F00000BF00BF00BF00BFDDF800E001B07047D4
:1014000081B0CDF800E01048FFF71EFFFFF766FF40
:101410000E480221FFF7BCFE0D480221FFF7B8FE7F
:101420000C480221FFF7B4FE44F67F77C0F21207A2
:101430007F1EFDD100BF00BF00BF00BF00BFDDF8B1
:1014400000E001B0704700BF441B00000000002016
:10145000210000204200002081B0CDF800E0564875
:101460000221FFF795FE55480221FFF791FEFFF795
:1014700071FE48F2FF67C0F293377F1EFDD100BFB7
:1014800000BF00BF00BF00BF4D480221FFF780FE34
:101490004C480221FFF77CFEFFF702FE48F2FF678F
:1014A000C0F2933700BF00BF7F1EFDD100BF00BF59
:1014B00000BF45480221FFF76BFE44480221FFF7B9
:1014C00067FEFFF70BFE48F2FF67C0F2933700BFDD
:1014D00000BF7F1EFDD100BF00BF00BF3C480221FE
:1014E000FFF756FE3B480221FFF752FEFFF714FEBE
:1014F00048F2FF67C0F293377F1EFDD100BF00BFE7
:1015000000BF00BF00BF34480221FFF741FE33484F
:101510000221FFF73DFEFFF769FD48F2FF67C0F2C9
:1015200093377F1EFDD100BF00BF00BF00BF00BFCB
:101530002B480221FFF72CFE2A480221FFF728FE44
:10154000FFF790FD48F2FF67C0F2933700BF00BF7E
:101550007F1EFDD100BF00BF00BF23480221FFF75F
:1015600017FE22480221FFF713FEFFF75DFD48F248
:10157000FF67C0F2933700BF00BF7F1EFDD100BFE1
:1015800000BF00BF1A480221FFF702FE19480221DE
:10159000FFF7FEFDFFF762FE48F2FF67C0F29337E8
:1015A0007F1EFDD100BF00BF00BF00BF00BFDDF840
:1015B00000E001B0704700BF6300002084000020FD
:1015C000A5000020C6000020E70000200801002040
:1015D000290100204A0100206B0100208C0100201D
:1015E000AD010020CE010020EF01002010020020FC
:1015F000310200205202002081B01CF8019B0BF840
:10160000019BBBEB0A0FF8D101B0704781B00249D2
:101610000248016001B07047401901008C020020AF
:1016200081B0FEE701B0704700F00EF800F004FB57
:10163000FFF7ECFF00F0C0FAFFF7B2FEFFF7E0FEA5
:10164000FFF70AFFFCE7FEE781B0CDF800E0464A6D
:10165000464B474C47494BF68030814206D94648B5
:10166000006840F002014448016011E045F6C050B6
:10167000814206D94048006840F001013E480160BF
:1016800006E03D4801686FF0070001403A480160FC
:10169000FFF732FE3948036039480460394802EAEE
:1016A00000013948016002F0010040B11946364896
:1016B000006800F00200002800D1F8E700E01946B9
:1016C00002F4803040B10B462F48006800F400302F
:1016D000002800D1F8E700E00B4602F0805068B126
:1016E0002948006840F0805127480160264800687A
:1016F00000F00050002800D1F8E7FFE702F080601A
:1017000078B12148006840F080611F4801601146AF
:101710001A461D48006800F00060002800D1F8E774
:1017200001E011461A4601F0807070B11648006859
:1017300040F080711448016011461348006800F0C1
:10174000007000B9F9E70A46FFE70C48006800F0AE
:101750000C01900000F00C00814200D0F5E7DDF8AC
:1017600000E001B0704700BF8100010502841D0048
:10177000440601004019010000200240041002400C
:101780002C100240FFFF0F00001002402D2D2D2DC8
:101790002D2D2D2D2D2D2D2D2D2D2D2D2D2D2D2D79
:1017A0002D2D2D2D2D2D2D2D2D2D2D2D00202020BD
:1017B00020202020204275636B20426F6F737420BD
:1017C000436C69636B2020202020202020002D2DD9
:1017D0002D2D2D2D2D2D2D2D2D2D2D2D2D2D2D2D39
:1017E0002D2D2D2D2D2D2D2D2D2D2D2D2D2D002063
:1017F000536574204F757470757420566F6C7461E6
:101800006765206F66202032353030206D5620000D
:101810002D2D2D2D2D2D2D2D2D2D2D2D2D2D2D2DF8
:101820002D2D2D2D2D2D2D2D2D2D2D2D2D2D2D2DE8
:101830000020536574204F757470757420566F6C5A
:1018400074616765206F66202033333030206D5619
:1018500020002D2D2D2D2D2D2D2D2D2D2D2D2D2DF2
:101860002D2D2D2D2D2D2D2D2D2D2D2D2D2D2D2DA8
:101870002D2D0020536574204F757470757420569B
:101880006F6C74616765206F6620203431303020C2
:101890006D5620002D2D2D2D2D2D2D2D2D2D2D2D49
:1018A0002D2D2D2D2D2D2D2D2D2D2D2D2D2D2D2D68
:1018B0002D2D2D2D0020536574204F757470757477
:1018C00020566F6C74616765206F6620203530305C
:1018D00030206D5620002D2D2D2D2D2D2D2D2D2D13
:1018E0002D2D2D2D2D2D2D2D2D2D2D2D2D2D2D2D28
:1018F0002D2D2D2D2D2D0020536574204F757470C6
:10190000757420566F6C74616765206F6620203691
:10191000393030206D5620002D2D2D2D2D2D2D2DC3
:101920002D2D2D2D2D2D2D2D2D2D2D2D2D2D2D2DE7
:101930002D2D2D2D2D2D2D2D0020536574204F750F
:101940007470757420566F6C74616765206F6620C3
:101950002038323030206D5620002D2D2D2D2D2D8C
:101960002D2D2D2D2D2D2D2D2D2D2D2D2D2D2D2DA7
:101970002D2D2D2D2D2D2D2D2D2D00205365742039
:101980004F757470757420566F6C74616765206F45
:1019900066203132303030206D5620002D2D2D2D17
:1019A0002D2D2D2D2D2D2D2D2D2D2D2D2D2D2D2D67
:1019B0002D2D2D2D2D2D2D2D2D2D2D2D0020536533
:1019C00074204F757470757420566F6C7461676500
:1019D000206F66203135303030206D5620002D2D9F
:1019E0002D2D2D2D2D2D2D2D2D2D2D2D2D2D2D2D27
:1019F0002D2D2D2D2D2D2D2D2D2D2D2D2D2D00FF72
:101A0000090000000A000000FFFFFFFF00000000C7
:101A100000000000000000000000000000000000C6
:101A200000000000000000000000000000000000B6
:101A3000000000001808000018000000000000006E
:101A40000000000000000000000000000000000096
:101A50000000000000000000000000000000000086
:101A6000000000000000000004000000350000003D
:101A700036000000FFFFFFFF000000000000000034
:101A80000000000000000000000000000000000056
:101A90000000000000000000000000000000000046
:101AA00018080000180000000000000000000000FE
:101AB0000000000000000000000000000000000026
:101AC0000000000000000000000000000000000016
:101AD0000000000008000008380000003900000085
:101AE000FFFFFFFF000000000000000000000000FA
:101AF00000000000000000000000000000000000E6
:101B000000000000000000000000000018080000B5
:101B100018000000000000000000000000000000AD
:101B200000000000000000000000000000000000B5
:101B300000000000000000000000000000000000A5
:101B400030001408D10A0000DD0A0000B90A0000C4
:101B5000C50A0000F1080000E5080000D9080000EF
:101B60001509000009090000FD080000CD0800006B
:101B700091080000FFFFFFFFFFFFFFFFFFFFFFFFD8
:101B8000FFFFFFFFFFFFFFFFFFFFFFFFFFFFFFFF65
:101B9000FFFFFFFFFFFFFFFFFFFFFFFFFFFFFFFF55
:101BA000FFFFFFFF00000000010203040102030425
:101BB000060708090204060800B5DFF814B0DFF8CC
:101BC00014A0DFF814C0FFF717FD00BD704700BF79
:101BD00000000020730200208C170000FFFFFFFFB1
:101BE000FFFFFFFFFFFFFFFFFFFFFFFFFFFFFFFF05
:101BF000FFFFFFFFFFFFFFFFFFFFFFFFFFFFFFFFF5
:101C0000FFFFFFFFFFFFFFFFFFFFFFFFFFFFFFFFE4
:101C1000FFFFFFFFFFFFFFFFFFFFFFFFFFFFFFFFD4
:101C2000FFFFFFFFFFFFFFFFFFFFFFFFFFFFFFFFC4
:101C3000FFFFFFFFFFFFFFFF00B5DFF810B0DFF889
:101C400010A0FFF78FFB00BD704700BF0000002011
:101C5000A0020020FFFFFFFFFFFFFFFFFFFFFFFFCE
:00000001FF
