:100000000AEF09F00000000000EF00F0000000001F
:0A0010000000000000000000F3D71C
:0E001C000201BBB102D0899201D0898212008C
:0E002A000201BBB102D08B9C01D08B8C120066
:0E0038000201BBB102D08D9201D08D82120068
:0E0046000201BBB102D08B9601D08B86120056
:0E0054000201BBB102D08B9A01D08B8A120040
:0E0062000201BBB102D08F9201D08F8212003A
:0E0070000201BBB102D08B9601D08B8612002C
:0E007E000201BBB102D0899801D0898812001E
:0E008C000201BBB102D08B9801D08B8812000C
:10009A000F0121B302D00000FBD7BBC21CFF120024
:0E00AA000201BBB102D0899001D08980120002
:0E00B8000201BBB102D08A9201D08A821200EE
:0E00C6000201BBB102D08D9001D08D801200DE
:0E00D4000201BBB102D08B9801D08B881200C4
:0E00E2000201BBB102D08B9801D08B881200B6
:0E00F0000201BBB102D08B9601D08B861200AC
:0E00FE00ACB202D00000FCD7BBC2ADFF1200B6
:0E010C000201BBB102D08D9401D08D8412008F
:0E011A000201BBB102D08B9E01D08B8E120071
:0E0128000201BBB102D08B9A01D08B8A12006B
:0E0136000201BBB102D08B9601D08B86120065
:0E0144000201BBB102D08B9801D08B88120053
:0E0152000201BBB102D08B9201D08B82120051
:0E0160000201BBB102D08A9001D08A80120049
:0E016E000201BBB102D08F9401D08F84120029
:0E017C000201BBB102D08A9401D08A84120025
:0E018A000201BBB102D08B9C01D08B8C120005
:0E0198000201BBB102D08D9601D08D861200FF
:0E01A6000201BBB102D08B9801D08B881200F1
:0E01B4000201BBB102D08B9801D08B881200E3
:0E01C2000201BBB102D08B9601D08B861200D9
:0E01D0000201BBB102D08B9A01D08B8A1200C3
:0E01DE000201BBB102D08F9001D08F801200C1
:0E01EC000201BBB102D08B9601D08B861200AF
:0E01FA000201BBB102D0899401D089841200A9
:0E0208000201BBB102D08B9401D08B84120096
:0E0216000201BBB102D08B9E01D08B8E120074
:0E0224000201BBB102D08B9001D08B80120082
:10023200FE0E0201946F000E956FBB0E966F020EBA
:10024200976FFF0E886FFF0E896F000E8A6F000E88
:100252008B6FFF0E8C6FFF0E8D6F000E8E6F000E78
:100262008F6FFF0E9C6FFF0E9D6F000E9E6F000E34
:100272009F6FAC8A900EAB6E948E949C9EAA03D014
:08028200AECF00F0FBD7120023
:10028A009A0E0201946F000E956FBB0E966F020EC6
:10029A00976FFF0E886FFF0E896F000E8A6F000E30
:1002AA008B6FFF0E8C6FFF0E8D6F000E8E6F000E20
:1002BA008F6FFF0E9C6FFF0E9D6F000E9E6F000EDC
:1002CA009F6F0F01218B900E226F98849892A4AA97
:0A02DA0003D01DCF00F0FBD7120087
:1002E400F250026EF29E0500FF6A0150FE6E00504D
:0802F400FD6E02BEF28E120045
:1002FC0021D0CF0EAF6EAC9496DF6BD0670EAF6E85
:10030C00AC9491DF66D0CF0EAF6EAC848CDF61D035
:10031C00670EAF6EAC8487DF5CD0440EAF6EAC84DE
:10032C0082DF57D0220EAF6EAC847DDF52D0060E2A
:10033C00006E58D00201000E006EBA1908E1005090
:10034C00B91905E1120EB81902E1B751C00AD1E092
:10035C00000E006EBA1908E10050B91905E1250E1E
:10036C00B81902E1B751800AC9E0000E006EBA1943
:10037C0008E10050B91905E14B0EB81902E1B7516B
:10038C00000AC1E0000E006EBA1908E10050B9195C
:10039C0005E1960EB81902E1B751000AB9E0000E5A
:1003AC00006EBA1908E10050B91905E1E10EB8194F
:1003BC0002E1B751000AB1E0BA51000A08E1B951A3
:1003CC00010A05E1B851C20A02E1B751000AAAE0DC
:1003DC00AED7FE0E986F000E996FBB0E9A6F020E81
:0603EC009B6F006A120085
:1003F20021D0CF0EAF6EAC941BDF6BD0670EAF6E09
:10040200AC9416DF66D0CF0EAF6EAC8411DF61D034
:10041200670EAF6EAC840CDF5CD0440EAF6EAC8462
:1004220007DF57D0220EAF6EAC8402DF52D0060E29
:10043200006E58D00201000E006EBA1908E1005099
:10044200B91905E1120EB81902E1B751C00AD1E09B
:10045200000E006EBA1908E10050B91905E1250E27
:10046200B81902E1B751800AC9E0000E006EBA194C
:1004720008E10050B91905E14B0EB81902E1B75174
:10048200000AC1E0000E006EBA1908E10050B91965
:1004920005E1960EB81902E1B751000AB9E0000E63
:1004A200006EBA1908E10050B91905E1E10EB81958
:1004B20002E1B751000AB1E0BA51000A08E1B951AC
:1004C200010A05E1B851C20A02E1B751000AAAE0E5
:1004D200AED7FE0E986F000E996FBB0E9A6F020E8A
:0604E2009B6F006A12008E
:1004E80038D00F0120870D0E1F6F040E1E6F218557
:1004F800C8DE7ED00F012087060E1F6F820E1E6F8A
:100508002185BFDE75D00F012087030E1F6F400EB7
:100518001E6F2185B6DE6CD00F012087010E1F6F7C
:10052800A00E1E6F2185ADDE63D00F012087010E5E
:100538001F6F150E1E6F2185A4DE5AD00F0120876C
:100548001F6B8A0E1E6F21859CDE52D0060E006E30
:1005580059D0000E006E0201BA1908E10050B9190D
:1005680005E1120EB81902E1B751C00ABAE0000E4F
:10057800006EBA1908E10050B91905E1250EB8193D
:1005880002E1B751800AB6E0000E006EBA1908E120
:100598000050B91905E14B0EB81902E1B751000A2C
:1005A800B2E0000E006EBA1908E10050B91905E171
:1005B800960EB81902E1B751000AAEE0000E006EBF
:1005C800BA1908E10050B91905E1E10EB81902E1BC
:1005D800B751000AAAE0BA51000A08E1B951010A64
:1005E80005E1B851C20A02E1B751000AA7E0AED747
:1005F80002019A0E986F000E996FBB0E9A6F020E49
:060608009B6F006A120066
:10060E00B7C2F6FFB8C2F7FFB9C2F8FF0900F5CFBF
:10061E00A4F20900F5CFA5F20900F5CFA6F2090064
:10062E00F5CFA7F2080E0201B725F66E000EB8211F
:10063E00F76E000EB921F86E0900F5CFA0F2090091
:10064E00F5CFA1F20900F5CFA2F20900F5CFA3F282
:10065E00040EB725F66E000EB821F76E000EB92106
:10066E00F86E0900F5CF90F20900F5CF91F209006E
:10067E00F5CF92F20900F5CF93F2180EB725F66E6C
:10068E00000EB821F76E000EB921F86E0900F5CFF5
:10069E00A8F20900F5CFA9F20900F5CFAAF20900D8
:1006AE00F5CFABF21C0EB725F66E000EB821F76E25
:1006BE00000EB921F86E0900F5CFACF20900F5CFA6
:1006CE00ADF20900F5CFAEF20900F5CFAFF2120090
:1006DE0021D0CF0EAF6EAC94A5DD6BD0670EAF6E92
:1006EE00AC94A0DD66D0CF0EAF6EAC849BDD61D036
:1006FE00670EAF6EAC8496DD5CD0440EAF6EAC84EC
:10070E0091DD57D0220EAF6EAC848CDD52D0060E2A
:10071E00006E58D00201000E006EBA1908E10050AA
:10072E00B91905E1120EB81902E1B751C00AD1E0AC
:10073E00000E006EBA1908E10050B91905E1250E38
:10074E00B81902E1B751800AC9E0000E006EBA195D
:10075E0008E10050B91905E14B0EB81902E1B75185
:10076E00000AC1E0000E006EBA1908E10050B91976
:10077E0005E1960EB81902E1B751000AB9E0000E74
:10078E00006EBA1908E10050B91905E1E10EB81969
:10079E0002E1B751000AB1E0BA51000A08E1B951BD
:1007AE00010A05E1B851C20A02E1B751000AAAE0F6
:1007BE00AED7FE0E986F000E996FBB0E9A6F020E9B
:0607CE009B6F006A12009F
:1007D40092C2E1FF93C2E2FF010EE66E90C200F006
:0807E40091C201F07DDD12005D
:1007EC009AC2E1FF9BC2E2FFB7C2E9FFB8C2EAFFBF
:1007FC00EECFE6FF98C200F099C201F06DDD006A01
:02080C001200D8
:10080E00AAC2E1FFABC2E2FF010EE66EA8C200F083
:08081E00A9C201F060DD120027
:10082600150E0C6EC60E0D6E0D2EFED70C2EFCD7B9
:0408360000001200AC
:10083A0059D00201B8B102D0929001D092800F0132
:10084A00259176D00201B8B102D0949001D094805B
:10085A006FD00201B8B102D0969001D0968068D0CC
:10086A000201B8B102D0949601D0948661D00201F7
:10087A00B8B102D0949801D094885AD00201B8B184
:10088A0002D0949A01D0948A53D00201B8B102D00E
:10089A00949201D094824CD00201B8B102D09390C4
:1008AA0001D0938045D00201B8B102D0949E01D004
:1008BA00948E3ED00201B8B102D0949C01D0948C9F
:1008CA0037D00201B8B102D0949601D0948630D0C4
:1008DA000201B8B102D0949801D0948829D0010EAF
:1008EA00006E28D00201B751000AA3E0B751010AED
:1008FA00A9E0B751020AADE0B751030AB1E0B75116
:10090A00040AB5E0B751050AB9E0B751060ABDE0D5
:10091A00B751070AC1E0B751080AC5E0B751090A39
:10092A00C9E0B7510A0ACDE0B7510B0AD1E0D7D7CF
:06093A00000E006E120029
:100940005DD00201B8B102D0929401D092840F011F
:1009500025957AD00201B8B102D0969601D096863C
:1009600073D00201B8B102D0969401D096846CD0B5
:100970000201B8B102D0949601D0948665D00201EC
:10098000B8B102D0949801D094885ED00201B8B179
:1009900002D0949A01D0948A57D00201B8B102D003
:1009A000989001D0988050D00201B8B102D09394B1
:1009B00001D0938449D00201B8B102D0989401D0FB
:1009C00098840F01239540D00201B8B102D09892CB
:1009D00001D098820F01239337D00201B8B102D021
:1009E000949601D0948630D00201B8B102D0949888
:1009F00001D0948829D0010E006E28D00201B75191
:100A0000000A9FE0B751010AA5E0B751020AA9E028
:100A1000B751030AADE0B751040AB1E0B751050A76
:100A2000B5E0B751060AB9E0B751070ABDE0B751C2
:100A3000080AC1E0B751090AC7E0B7510A0ACDE078
:0E0A4000B7510B0AD1E0D7D7000E006E12009E
:100A4E0059D00201B8B102D0929201D092820F0118
:100A5E00259376D00201B8B102D0929801D0928837
:100A6E006FD00201B8B102D0969201D0968268D0B2
:100A7E000201B8B102D0949601D0948661D00201E1
:100A8E00B8B102D0949801D094885AD00201B8B16E
:100A9E0002D0949A01D0948A53D00201B8B102D0F8
:100AAE00949401D094844CD00201B8B102D09392A8
:100ABE0001D0938245D00201B8B102D0949E01D0EC
:100ACE00948E3ED00201B8B102D0949C01D0948C89
:100ADE0037D00201B8B102D0949601D0948630D0AE
:100AEE000201B8B102D0949801D0948829D0010E99
:100AFE00006E28D00201B751000AA3E0B751010AD7
:100B0E00A9E0B751020AADE0B751030AB1E0B751FF
:100B1E00040AB5E0B751050AB9E0B751060ABDE0BF
:100B2E00B751070AC1E0B751080AC5E0B751090A23
:100B3E00C9E0B7510A0ACDE0B7510B0AD1E0D7D7B9
:060B4E00000E006E120013
:100B54002CD0B1C2B7F2B2C2B8F2B3C2B9F2B4C2C5
:100B6400BAF245DC30D0B1C2B7F2B2C2B8F2B3C205
:100B7400B9F2B4C2BAF27EEC01F025D0B1C2B7F238
:100B8400B2C2B8F2B3C2B9F2B4C2BAF2ABDC1BD08F
:100B9400B1C2B7F2B2C2B8F2B3C2B9F2B4C2BAF2D5
:100BA4009CDD11D0010E006E0ED00201B051000A7E
:100BB400D0E0B051010AD7E0B051020ADFE0B051F1
:080BC400100AE6E0EFD7120071
:100BCC0015D0B1C2B7F2B2C2B8F231DE1AD0B1C28E
:100BDC00B7F2B2C2B8F235DF14D0B1C2B7F2B2C2BA
:100BEC00B8F2A8DE0ED0010E006E0BD00201B0518F
:100BFC00000AE7E0B051010AEAE0B051020AEDE068
:040C0C00F2D7120009
:100C1000B0C2B7F2B1C2B8F2B2C2B9F2F8DC120097
:100C2000A2C2E1FFA3C2E2FFE66AA0C200F0A1C235
:100C300001F072EC01F0F7DDA6C2E1FFA7C2E2FF0E
:100C4000010EE66EA4C200F0A5C201F072EC01F044
:100C5000EADDAEC2E1FFAFC2E2FFE66AACC200F07D
:0A0C6000ADC201F072EC01F01200C9
:100C6A00A2C2E1FFA3C2E2FFE66AA0C200F0A1C2EB
:100C7A0001F072EC01F0D2DDA6C2E1FFA7C2E2FFE9
:100C8A00010EE66EA4C200F0A5C201F072EC01F0FA
:100C9A00C5DDAEC2E1FFAFC2E2FF010EE66EACC235
:0C0CAA0000F0ADC201F072EC01F012008D
:100CB600A2C2E1FFA3C2E2FFE66AA0C200F0A1C29F
:100CC60001F072EC01F0ACDDA6C2E1FFA7C2E2FFC3
:100CD600E66AA4C200F0A5C201F072EC01F0A0DD44
:100CE600AEC2E1FFAFC2E2FF010EE66EACC200F09B
:0A0CF600ADC201F072EC01F0120033
:100D0000B0C2B3F2B1C2B4F20D0E0201B56F0A0E59
:100D1000B66F35D0B3C2B7F2B4C2B8F267DD3AD01D
:100D2000B3C2E9FFB4C2EAFFEE5209E0B3C2B7F2C0
:100D3000B4C2B8F25BDD0201B34BB42BF1D72AD0B9
:100D4000B3C2E9FFB4C2EAFFEE5209E0B3C2B7F2A0
:100D5000B4C2B8F24BDD0201B34BB42BF1D70201A0
:100D6000B50EB76F020EB86F41DDB60E0201B76F58
:100D7000020EB86F3BDD0ED0060E006E0CD00201E5
:100D8000B251000AC7E0B251010ACAE0B251020AE8
:080D9000D7E0F2D7006A12005F
:100D9800AEC2E1FFAFC2E2FFE66AACC200F0ADC28C
:100DA80001F072EC01F03BDDA6C2E1FFA7C2E2FF51
:100DB800E66AA4C200F0A5C201F072EC01F02FDDD2
:100DC800A2C2E1FFA3C2E2FFE66AA0C200F0A1C28C
:080DD80001F072EC01F01200C1
:100DE000A2C2E1FFA3C2E2FF010EE66EA0C200F0C4
:100DF000A1C201F072EC01F016DDA6C2E1FFA7C2AC
:100E0000E2FFE66AA4C200F0A5C201F072EC01F0B4
:100E10000ADDAEC2E1FFAFC2E2FFE66AACC200F09B
:0A0E2000ADC201F072EC01F0120007
:100E2A00A2C2E1FFA3C2E2FF010EE66EA0C200F079
:100E3A00A1C201F072EC01F0F1DCA6C2E1FFA7C287
:100E4A00E2FF010EE66EA4C200F0A5C201F072EC48
:100E5A0001F0E4DCAEC2E1FFAFC2E2FF010EE66ED2
:0E0E6A00ACC200F0ADC201F072EC01F012005B
:080E7800ADDCD5DCC8DC120082
:100E8000A2C2E1FFA3C2E2FF010EE66EA0C200F023
:100E9000A1C201F072EC01F0C6DCA6C2E1FFA7C25C
:100EA000E2FFE66AA4C200F0A5C201F072EC01F014
:100EB000BADCAEC2E1FFAFC2E2FF010EE66EACC229
:0C0EC00000F0ADC201F072EC01F0120075
:100ECC00A2C2E1FFA3C2E2FF010EE66EA0C200F0D7
:100EDC00A1C201F072EC01F0A0DCA6C2E1FFA7C236
:100EEC00E2FF010EE66EA4C200F0A5C201F072ECA6
:100EFC0001F093DCAEC2E1FFAFC2E2FFE66AACC226
:0C0F0C0000F0ADC201F072EC01F0120028
:100F18000201B06BB16BB26B55DE0201B06B010E12
:100F2800B16FB26B4FDE0201B06B020EB16FB26BE4
:100F380049DE0201B06B060EB16FB26B43DE0201EF
:100F4800B06B070EB16FB26B3DDE100E0201B06FD1
:100F5800800EB16F250EB26F000EB36FB46FF6DD61
:100F6800090E0B6E1E0E0C6EE40E0D6E0D2EFED7C6
:0C0F78000C2EFCD70B2EFAD70000120044
:100F84000900F5CFE6FF0006FBE10106F9E11200D6
:100F94001D0E0201B06F010EB16F020EB26FAEDE14
:100FA400800E0201B06F010EB16F020EB26FA6DEA9
:100FB400F1DE020E0A6E960E0B6ED80E0C6E080E43
:100FC4000D6E0D2EFED70C2EFCD70B2EFAD70A2E43
:100FD400F8D700005F0E0201B06F010EB16F020E70
:100FE400B26F8CDEA10E0201B06F010EB16F020E62
:100FF400B26F84DE5EDE020E0A6E960E0B6ED80EA3
:101004000C6E080E0D6E0D2EFED70C2EFCD70B2E7B
:10101400FAD70A2EF8D70000C20E0201B06F010EF3
:10102400B16F020EB26F6ADE570E0201B06F000E8E
:10103400B16F020EB26F62DEF1DD020E0A6E960E21
:101044000B6ED80E0C6E080E0D6E0D2EFED70C2EE8
:10105400FCD70B2EFAD70A2EF8D70000780E02011F
:10106400B06F000EB16F020EB26F48DE150E0201B2
:10107400B06F000EB16F020EB26F40DEF4DD020EEF
:101084000A6E960E0B6ED80E0C6E080E0D6E0D2E9B
:10109400FED70C2EFCD70B2EFAD70A2EF8D7000059
:1010A400360E0201B06F000EB16F020EB26F26DE73
:1010B400DB0E0201B06F000EB16F020EB26F1EDEC6
:1010C4008DDE020E0A6E960E0B6ED80E0C6E080E96
:1010D4000D6E0D2EFED70C2EFCD70B2EFAD70A2E32
:1010E400F8D70000FC0E0201B06F000EB16F020EC3
:1010F400B26F04DE990E0201B06F000EB16F020EE2
:10110400B26FFCDDBBDE020E0A6E960E0B6ED80EBD
:101114000C6E080E0D6E0D2EFED70C2EFCD70B2E6A
:10112400FAD70A2EF8D70000BA0E0201B06F000EEB
:10113400B16F020EB26FE2DD670E0201B06F020EF4
:10114400B16F020EB26FDADDBFDE020E0A6E960ECA
:101154000B6ED80E0C6E080E0D6E0D2EFED70C2ED7
:10116400FCD70B2EFAD70A2EF8D70000460E020140
:10117400B06F020EB16F020EB26FC0DD250E020118
:10118400B06F020EB16F020EB26FB8DD4CDE020E0C
:101194000A6E960E0B6ED80E0C6E080E0D6E0D2E8A
:1011A400FED70C2EFCD70B2EFAD70A2EF8D7000048
:0211B400120027
:1011B600950E0201B06F140EB16F000EB26F25DDF1
:1011C60058DE040E0201B06F020EB16F020EB26F4E
:1011D60094DDE30E0201B06F010EB16F020EB26F25
:1011E6008CDD3E0E0201B06F010EB16F020EB26FC2
:1011F60084DD090E0B6E1E0E0C6EE40E0D6E0D2EAA
:0E120600FED70C2EFCD70B2EFAD700001200DC
:0E1214007BEC0AF07FDECDDFBBDEFED7FFD71E
:1014F60010EE15F0730E006E030E016E220EF66EE0
:0E150600120EF76E000EF86EC2EC07F0120027
:101222002D2D2D2D2D2D2D2D2D2D2D2D2D2D2D2DEC
:101232002D2D2D2D2D2D2D2D2D2D2D2D2D2D2D2DDC
:0112420000AB
:1012430020536574204F757470757420566F6C74D9
:10125300616765206F66202036393030206D562057
:01126300008A
:101264002D2D2D2D2D2D2D2D2D2D2D2D2D2D2D2DAA
:101274002D2D2D2D2D2D2D2D2D2D2D2D2D2D2D2D9A
:011284000069
:1012850020536574204F757470757420566F6C7497
:10129500616765206F66202035303030206D56201F
:0112A5000048
:1012A6002D2D2D2D2D2D2D2D2D2D2D2D2D2D2D2D68
:1012B6002D2D2D2D2D2D2D2D2D2D2D2D2D2D2D2D58
:0112C6000027
:1012C70020536574204F757470757420566F6C7455
:1012D700616765206F66203132303030206D5620CF
:0112E7000006
:1012E8002D2D2D2D2D2D2D2D2D2D2D2D2D2D2D2D26
:1012F8002D2D2D2D2D2D2D2D2D2D2D2D2D2D2D2D16
:0113080000E4
:1013090020536574204F757470757420566F6C7412
:10131900616765206F66202038323030206D562095
:0113290000C3
:10132A0020536574204F757470757420566F6C74F1
:10133A00616765206F66202032353030206D562077
:01134A0000A2
:10134B002D2D2D2D2D2D2D2D2D2D2D2D2D2D2D2DC2
:10135B002D2D2D2D2D2D2D2D2D2D2D2D2D2D2D2DB2
:01136B000081
:10136C0020536574204F757470757420566F6C74AF
:10137C00616765206F66202033333030206D562036
:01138C000060
:10138D002D2D2D2D2D2D2D2D2D2D2D2D2D2D2D2D80
:10139D002D2D2D2D2D2D2D2D2D2D2D2D2D2D2D2D70
:0113AD00003F
:1013AE002D2D2D2D2D2D2D2D2D2D2D2D2D2D2D2D5F
:1013BE002D2D2D2D2D2D2D2D2D2D2D2D2D2D2D2D4F
:0113CE00001E
:1013CF0020536574204F757470757420566F6C744C
:1013DF00616765206F66202034313030206D5620D4
:0113EF0000FD
:1013F00020202020202020204275636B20426F6F28
:10140000737420436C69636B2020202020202020EF
:0114100000DB
:101411002D2D2D2D2D2D2D2D2D2D2D2D2D2D2D2DFB
:101421002D2D2D2D2D2D2D2D2D2D2D2D2D2D2D2DEB
:0114310000BA
:101432002D2D2D2D2D2D2D2D2D2D2D2D2D2D2D2DDA
:101442002D2D2D2D2D2D2D2D2D2D2D2D2D2D2D2DCA
:011452000099
:1014530020536574204F757470757420566F6C74C7
:10146300616765206F66203135303030206D56203E
:011473000078
:101474002D2D2D2D2D2D2D2D2D2D2D2D2D2D2D2D98
:101484002D2D2D2D2D2D2D2D2D2D2D2D2D2D2D2D88
:011494000057
:10149500AA00BB022402BB02C600BB02F000BB02CD
:1014A5004401BB022801BB025201BB026001BB0221
:1014B5001A01BB028A01BB023601BB028C00BB02CA
:1014C500FFFFFFFFFFFFFFFFFFFFFFFFFFFFFFFF27
:1014D500FFFFFFFFFFFFFFFFFFFFFFFFFFFFFFFF17
:1014E500FFFFFFFFFFFFFFFFFFFFFFFFFFFFFFFF07
:020000040030CA
:0E00000015137F7CF98B91FFFFC0FFE0FF40DE
:00000001FF
